:100000000C945D000C9485000C9485000C94850084
:100010000C9485000C9485000C9485000C9485004C
:100020000C9485000C9485000C9485000C9485003C
:100030000C9485000C9485000C9485000C9485002C
:100040000C941C020C9485000C948C020C94660297
:100050000C9485000C9485000C9485000C9485000C
:100060000C9485000C94850000000008000201003B
:100070000003040700000000000000000000000072
:10008000250028002B0000000000240027002A0083
:10009000040404040404040402020202020203032E
:1000A0000303030301020408102040800102040836
:1000B0001020010204081020930311241FBECFEF6B
:1000C000D8E0DEBFCDBF11E0A0E0B1E0E0E9F7E0AD
:1000D00002C005900D92AE3DB107D9F722E0AEED1A
:1000E000B1E001C01D92A438B207E1F710E0CDE500
:1000F000D0E004C02197FE010E94C003CC35D10797
:10010000C9F70E94BE020C94C6030C94000090E054
:10011000FC01EC55FF4F249180579F4FFC018491C7
:10012000882399F090E0880F991FFC01EA57FF4F50
:10013000A591B491FC01E458FF4F859194918FB73C
:10014000F894EC91E22BEC938FBF089590E0FC01C2
:10015000E859FF4F2491FC01EC55FF4F3491FC010D
:10016000E057FF4FE491EE23C9F0222339F023300A
:1001700001F1A8F4213019F1223029F1F0E0EE0F5D
:10018000FF1FE458FF4FA591B4918FB7F894EC91FD
:10019000611126C030953E233C938FBF08952730D0
:1001A000A9F02830C9F0243049F7809180008F7D74
:1001B00003C0809180008F7780938000DFCF84B56B
:1001C0008F7784BDDBCF84B58F7DFBCF8091B0006E
:1001D0008F778093B000D2CF8091B0008F7DF9CF20
:1001E0003E2BDACFAF92BF92CF92DF92EF92FF9287
:1001F0000F931F93CF93DF936C017B018B01040F4F
:10020000151FEB015E01AE18BF08C017D10759F0EA
:100210006991D601ED91FC910190F081E02DC6012C
:100220000995892B79F7C501DF91CF911F910F9126
:10023000FF90EF90DF90CF90BF90AF900895FC01BA
:10024000538D448D252F30E0842F90E0821B930B3B
:10025000541710F0CF96089501970895FC01918DE1
:10026000828D981761F0A28DAE0FBF2FB11D5D96E4
:100270008C91928D9F5F9F73928F90E008958FEF86
:100280009FEF0895FC01918D828D981731F0828D3A
:10029000E80FF11D858D90E008958FEF9FEF089591
:1002A000FC01918D228D892F90E0805C9F4F821BF5
:1002B00091098F739927089587EE91E00E9450016C
:1002C00021E0892B09F420E0822F089580E090E05E
:1002D000892B29F00E945C0181110C940000089583
:1002E000FC01A48DA80FB92FB11DA35ABF4F2C91AB
:1002F000848D90E001968F739927848FA689B789A2
:100300002C93A089B1898C91837080648C93938D98
:10031000848D981306C00288F389E02D80818F7D3B
:1003200080830895EF92FF920F931F93CF93DF93F3
:10033000EC0181E0888F9B8D8C8D98131AC0E88921
:10034000F989808185FF15C09FB7F894EE89FF89F0
:100350006083E889F98980818370806480839FBF8E
:1003600081E090E0DF91CF911F910F91FF90EF908E
:100370000895F62E0B8D10E00F5F1F4F0F7311279E
:10038000E02E8C8D8E110CC00FB607FCFACFE889D9
:10039000F989808185FFF5CFCE010E947001F1CFF0
:1003A000EB8DEC0FFD2FF11DE35AFF4FF0829FB74D
:1003B000F8940B8FEA89FB8980818062CFCFCF933D
:1003C000DF93EC01888D8823B9F0AA89BB89E8897D
:1003D000F9898C9185FD03C0808186FD0DC00FB623
:1003E00007FCF7CF8C9185FFF2CF808185FFEDCFA1
:1003F000CE010E947001E9CFDF91CF910895CF9394
:10040000DF93FC0101900020E9F73197AF01481B11
:10041000590BBC0187EE91E00E94F200EC0142E032
:1004200050E062E171E087EE91E00E94F2008C0FF3
:100430009D1FDF91CF9108951F920F920FB60F92DB
:1004400011242F933F938F939F93AF93BF938091EA
:10045000E3019091E401A091E501B091E6013091B2
:10046000E20123E0230F2D3758F50196A11DB11DA0
:100470002093E2018093E3019093E401A093E501CE
:10048000B093E6018091DE019091DF01A091E0013F
:10049000B091E1010196A11DB11D8093DE01909301
:1004A000DF01A093E001B093E101BF91AF919F9173
:1004B0008F913F912F910F900FBE0F901F90189525
:1004C00026E8230F0296A11DB11DD2CF1F920F92D5
:1004D0000FB60F9211242F933F934F935F936F9317
:1004E0007F938F939F93AF93BF93EF93FF9387EE89
:1004F00091E00E947001FF91EF91BF91AF919F91A8
:100500008F917F916F915F914F913F912F910F90BC
:100510000FBE0F901F9018951F920F920FB60F925B
:1005200011242F938F939F93EF93FF93E091F70103
:10053000F091F8018081E091FD01F091FE0182FDD2
:100540001BC09081809100028F5F8F732091010208
:10055000821741F0E0910002F0E0E951FE4F958FE3
:1005600080930002FF91EF919F918F912F910F90B7
:100570000FBE0F901F9018958081F4CF789484B5AA
:10058000826084BD84B5816084BD85B5826085BD8F
:1005900085B5816085BD80916E00816080936E001D
:1005A000109281008091810082608093810080910F
:1005B00081008160809381008091800081608093C0
:1005C00080008091B10084608093B1008091B00080
:1005D00081608093B00080917A00846080937A007B
:1005E00080917A00826080937A0080917A008160A5
:1005F00080937A0080917A00806880937A001092CC
:10060000C100E091F701F091F80182E08083E09170
:10061000F301F091F4011082E091F501F091F601FF
:100620008FEC80831092FF01E091FB01F091FC01BF
:1006300086E08083E091F901F091FA018081806188
:100640008083E091F901F091FA01808188608083D4
:10065000E091F901F091FA01808180688083E09156
:10066000F901F091FA0180818F7D80838DE00E94F5
:1006700087008CE00E94870085E191E00E94FF01E5
:1006800080E391E00E94FF0186E491E00E94FF0177
:1006900089E591E00E94FF018AE691E00E94FF0156
:1006A0008DE791E00E94FF01C0E0D0E087EE91E08D
:1006B0000E94500118161906FCF487EE91E00E9482
:1006C0002E01823311F12CF4813371F08AEC91E028
:1006D00011C0833309F18433C9F760E08CE00E94D4
:1006E000A6008CEB91E006C061E08DE00E94A600C0
:1006F0008EE891E00E94FF012097C1F20E945C0108
:100700008823A1F20E940000D1CF60E08DE00E941A
:10071000A6008EE991E0EECF61E08CE00E94A60099
:100720008CEA91E0E7CFE7EEF1E01382128288EEE7
:1007300093E0A0E0B0E084839583A683B78384E050
:1007400091E09183808385EC90E09587848784ECA9
:1007500090E09787868780EC90E0918B808B81EC8E
:1007600090E0938B828B82EC90E0958B848B86EC6F
:1007700090E0978B868B118E128E138E148E0895B7
:10078000EE0FFF1F0590F491E02D0994F894FFCF30
:10079000000000009201F2001F01DF0150012E0154
:1007A00042010D0A0053697374656D612064652010
:1007B000636F6E74726F6C206465204C45447300E7
:1007C000436F6D616E646F7320646973706F6E69DF
:1007D000626C65733A0031202D20456E63656E644E
:1007E0006572204C454420310032202D204170613B
:1007F000676172204C454420310033202D20456E26
:1008000063656E646572204C454420320034202DAF
:1008100020417061676172204C45442032004C4594
:1008200044203120656E63656E6469646F004C45D9
:10083000442031206170616761646F004C45442041
:100840003220656E63656E6469646F004C454420B8
:1008500032206170616761646F00436F6D616E6427
:0E0860006F206E6F2076C3A16C69646F00007C
:00000001FF
